:100000000208457F057E00120A1C7FCCAD07E4FB89
:10001000EBC3940874809480501C120A16EDC3132D
:10002000FD92B37F3C7E00120A1CD2B37F0A7E0091
:07003000120A1C0B80DA220A
:10003B000208D10202E6E86480F8E933E833601184
:10004B000460F0ED33EC337009E8FCE9FDEAFEEBFC
:10005B00FF220460DED3EB9FEA9EE99DE8C2E78CAA
:10006B00F0C2F795F0400CE8CCF8E9CDF9EACEFAFE
:10007B00EBCFFB1202B185D0F05804700320D5B33F
:10008B00E80470075002B2D50202F092D5EC04607E
:10009B00F7E4CCC0E0C398F8603B94186008400DBF
:1000AB00D0E0FB0202C8E4FBFAC9FC8028E830E48C
:1000BB0006E4C9FBE4CAFCE830E305E4C9CACBFC9F
:1000CB00E854076010F8C3E913F9EA13FAEB13FBD2
:1000DB00EC13FCD8F130F52FC3E49CFCEF9BFFEE47
:1000EB009AFEED99FDD0E0FBEF4E4D4C701222DBEA
:1000FB00030202EDEC2CFCEF33FFEE33FEED33FD90
:10010B00ED30E7EB0202C8EF2BFFEE3AFEED39FDC7
:10011B00D0E0FB50130BBB00030202F0ED13FDEE1E
:10012B0013FEEF13FFEC13FC0202C8EC4D6011E859
:10013B00497017ED33EC3304600DE4FCFFFEFD2238
:10014B00E933E8330470F80202E61202B158046096
:10015B0009E4CC248150062850090202F028400300
:10016B000202EDC0E0EB4A7044B98006D0E0FB021E
:10017B0002DCEF4E701CBD8008EBFFEAFEE9FD8050
:10018B00EBE98DF0A4FEE5F002021FE9CDF9EAFEE2
:10019B00EBFFEF89F0A4FCE5F0CE89F0A42EFFE491
:1001AB0035F0CD89F0A42DFEE435F08067EF4E706D
:1001BB0005BD80D780C3EF8BF0A4ACF0EE8BF0A421
:1001CB002CFCE435F0F8EF8AF0A42CE5F038FCE4D5
:1001DB0033CB8DF0A42CFCE5F03BF8EE8AF0A42C8D
:1001EB00FCE5F038F8E433CF89F0A42CFCE5F038CB
:1001FB00CF3400CE89F0A42FFFE5F03EFEE433C9E7
:10020B008DF0A42EFEE5F039CD8AF0A42FFFE5F09A
:10021B003EFEE43DFD33D0E0FB50070BBB000F026D
:10022B0002F0EC2CFCEF33FFEE33FEED33FD02025C
:10023B00C875F020800E75F010800575F0087D00F4
:10024B007E007F003392D530D503120702EC33408A
:10025B0010EF33FFEE33FEED33FDEC33FCD5F0ED59
:10026B0022E5F0247EA2D513CC92E7CDCEFF22ED72
:10027B00D2E7CD33EC3392D524814006E4FFFEFD6B
:10028B00FC22FCE4CFCECDCC24E0501174FF80EDEA
:10029B00C3CC13CCCD13CDCE13CECF13CF0470F074
:1002AB0030D5DE020702E9D2E7C933E833F892D53D
:1002BB00EDD2E7CD33EC33FC5002B2D522EC30E774
:1002CB00100FBF000C0EBE00080DBD00040BEB6041
:1002DB0014A2D5EB13FCED92E7FD2274FFFCFDFE9F
:1002EB00FF22E480F8A2D574FF13FC7D80E480EF3D
:1002FB00F920E72824F950037907E4F42402FB18CA
:10030B00DBFDE624FB5014E9600DE4F618E604F679
:10031B00B40A08E4F6D9F57401F60A22C2D522ED27
:10032B0033EC3392D5FA602AB4FF33EDC2E77BFF8F
:10033B0060067A03794FE4227A03795820D5047A40
:10034B00037953224E614E002B494E46002D494EE8
:10035B004600E47A08F608DAFC7B00740722E8C052
:10036B00E0ECC0E0EDC0E0EEC0E0EFC0E0EA75F01D
:10037B0010A4CAABF075F04DA42BFBE435F0FCEAEE
:10038B002410FAEB34C5FBEC34D9FCEDC2E7FF7556
:10039B00F056A4F42411C5F0F434C58FF0A42AE56B
:1003AB00F03BE43CF620E7141204FDD0E0FFD0E074
:1003BB00FED0E0FDD0E0FC1204308014F4041204F3
:1003CB00FDD0E0FFD0E0FED0E0FDD0E0FC12013626
:1003DB00D0E0F8E6FAEDD2E7CD33EC332482FBE440
:1003EB00C3CF33CFCE33CECD33CD33DBF37B0775DA
:1003FB00F00A846004F6081B0AE5F0F6088FF07427
:10040B000AA4FFACF08EF0740AA42CFEACF05001E1
:10041B000C8DF0740AA42CFDE435F0F608DBDE74C9
:10042B0007220202F0EC5D046005E8590470030238
:10043B0002E61202B1580460F6EC4860F2EC70046C
:10044B00FDFEFF22C860DB2481C85009C3986002FF
:10045B0050060202ED9850CAF582E9294B4A700505
:10046B00AB820202DC75F0007C1A7880C3EF9BEE46
:10047B009AED99400DC3EF9BFFEE9AFEED99FDE8C7
:10048B0042F0DC23ACF0D0E0FFD0E0FED0E0FDABDF
:10049B008220E7101BEB60BAEC2CFCEF33FFEE3342
:1004AB00FEED33FD0202C8E803F830E705C0F07536
:1004BB00F000EF2FFFEE33FEED33FD40B830E7C217
:1004CB0080AA3F8000004120000042C80000447A0F
:1004DB000000461C400047C35000497424004B18D1
:1004EB0096804CBEBC205A0E1BCA6753C21C749D0F
:1004FB00C5AEFB60065407601C232312052BEB547F
:10050B00386009120517120526120136ECF8EDF9C1
:10051B00EEFAEFCB22EB12052680F1543803241CA4
:10052B009004CDFE93FC0EEE93FD0EEE930ECE9348
:10053B00FF22BB010689828A83E0225002E722BB9D
:10054B00FE02E32289828A83E49322BB010CE582BB
:10055B0029F582E5833AF583E0225006E92582F8F6
:10056B00E622BBFE06E92582F8E222E58229F58226
:10057B00E5833AF583E49322BB010689828A83F0F3
:10058B00225002F722BBFE01F322EF8DF0A4A8F05C
:10059B00CF8CF0A428CE8DF0A42EFE22BC000BBE77
:1005AB000029EF8DF084FFADF022E4CCF875F00854
:1005BB00EF2FFFEE33FEEC33FCEE9DEC984005FC89
:1005CB00EE9DFE0FD5F0E9E4CEFD22EDF8F5F0EE51
:1005DB008420D21CFEADF075F008EF2FFFED33FD3C
:1005EB004007985006D5F0F222C398FD0FD5F0EADC
:1005FB0022BB0110E58229F582E5833AF583E0F50C
:10060B00F0A3E0225009E92582F886F008E622BB28
:10061B00FE0AE92582F8E2F5F008E222E5832AF5E5
:10062B0083E993F5F0A3E9932275F008758200EF47
:10063B002FFFEE33FECD33CDCC33CCC58233C58209
:10064B009BED9AEC99E58298400CF582EE9BFEEDC2
:10065B009AFDEC99FC0FD5F0D6E4CEFBE4CDFAE491
:10066B00CCF9A88222B800C1B90059BA002DEC8B85
:10067B00F084CFCECDFCE5F0CBF97818EF2FFFEE61
:10068B0033FEED33FDEC33FCEB33FB10D70399401A
:10069B0004EB99FB0FD8E5E4F9FA227818EF2FFF5A
:1006AB00EE33FEED33FDEC33FCC933C910D7059B9C
:1006BB00E99A4007EC9BFCE99AF90FD8E0E4C9FAF8
:1006CB00E4CCFB2275F010EF2FFFEE33FEED33FD84
:1006DB00CC33CCC833C810D7079BEC9AE899400AA7
:1006EB00ED9BFDEC9AFCE899F80FD5F0DAE4CDFB25
:1006FB00E4CCFAE4C8F922C3E49FFFE49EFEE49D38
:10070B00FDE49CFC22FAE6FB0808E6F925F0F61856
:10071B00E6CA3AF622D083D082F8E49370127401C1
:10072B0093700DA3A393F8740193F5828883E473FC
:10073B007402936860EFA3A3A380DFEC8EF0A4CCCC
:10074B00C5F0CCCDF8EFA4CEC5F02DFDE43CFCE814
:10075B00A42EC8C5F03DFDE43CFCEFA4FFE5F0285A
:10076B00FEE43DFDE43CFC22E4F528F529752E144E
:10077B007F64120A6B1209C47F64120A6B1209E1BF
:10078B001209FD8E288F29AC28AD29E4120241E411
:10079B00FBFA79C87840120136E4FBFAF9783F127C
:1007AB00004512027A8E288F297C277D101205A70F
:1007BB007E037FE8CFCDCFCECCCE1205A78F2AAE4E
:1007CB0028AF297C037DE81205A77E007F64CFCD7F
:1007DB00CFCECCCE1205A78F2BAE28AF297C007DB8
:1007EB00641205A77E007F0ACFCDCFCECCCE1205EB
:1007FB00A78F2CAE28AF297C007D0A1205A78D2D63
:10080B00E52A900AA693FD7FC0120A57E52B900AA2
:10081B00A6934480FD7FC2120A57E52C900AA6933B
:10082B00FD7FC4120A57E52D900AA693FD7FC612D1
:10083B000A577FC8120A6B02078B787FE4F6D8FD44
:10084B0075812E02088C020773E493A3F8E493A33B
:10085B004003F68001F208DFF48029E493A3F854F7
:10086B0007240CC8C333C4540F4420C8834004F47A
:10087B0056800146F6DFE4800B010204081020408D
:10088B0080900A7BE47E019360BCA3FF543F30E56C
:10089B0009541FFEE493A360010ECF54C025E06002
:1008AB00A840B8E493A3FAE493A3F8E493A3C8C5D0
:1008BB0082C8CAC583CAF0A3C8C582C8CAC583CAC1
:1008CB00DFE9DEE780BEC0E0C0D030D822C2D8302E
:1008DB00A50AE5122518F518E5118008E50C251871
:1008EB00F518E50B3517F5178518EAE517F5FA3006
:1008FB00D922C2D930A60AE514251AF51AE51380B8
:10090B0008E50E251AF51AE50D3519F519851AEBBB
:10091B00E519F5FB30DA22C2DA30A70AE516251CF9
:10092B00F51CE5158008E510251CF51CE50F351B9E
:10093B00F51B851CECE51BF5FCD0D0D0E032E4FDBB
:10094B00FBEDC39408748094805022120A16D2B324
:10095B00120A1830B30DA8057401088002C333D8EE
:10096B00FC42037F3C7E00120A1C0D80D4AF032295
:10097B00AD07C2B27F0A7E00120A47E4FCECC394B7
:10098B0008748094805013EDC313FD92CDC2CC122A
:10099B000A43D2CC120A430C80E322D203C2B37FA8
:1009AB00587E02120A1CD2B37F3C7E00120A1CA294
:1009BB00B3920330B3FDA20322D2B2D2CCD2CD7FFD
:1009CB000A120A6B7F02120A967F44120A967F88DC
:1009DB00120A96020A9F7D3F7FC0120A577D867FBF
:1009EB00C2120A577D5B7FC4120A577D4F7FC60226
:1009FB000A57120A2D120A8B120949AA0712094922
:100A0B00EFFE7C00E42AFFEC3EFE22C2B37F027EA7
:100A1B0000EF1FAC0670011E4C600600000000804A
:100A2B00F0221209A61200037F1F12000C1209A656
:100A3B001200037F4402000C7F057E00EF1F700144
:100A4B001E144E60060000000080F122AB05120957
:100A5B007BAF0312097B7FC87E00120A47020A9FF5
:100A6B007D9B7C03ED1D70011C144C70F7DFF12294
:100A7B004C0000000000000000000000000000001F
:100A8B001209A61200037FBE02000C12097B120A88
:100A9B0043D2B222D2B2D2CCD2CD223F065B4F662A
:0D0AAB006D7D077F6F777C395E797100707B
:00000001FF
